:020000040800F2
:1000000000000824F12C0008052A00080D2A000829
:10001000152A00081D2A0008252A000800000000F3
:100020000000000000000000000000002D2A000871
:100030003B2A000800000000492A0008572A00084F
:10004000412D0008412D0008412D0008412D0008D8
:10005000412D0008412D0008412D0008412D0008C8
:10006000412D0008412D0008412D0008412D0008B8
:10007000412D0008412D0008412D0008412D0008A8
:10008000412D0008412D0008412D0008412D000898
:10009000412D0008412D0008412D0008412D000888
:1000A000412D0008652A0008412D0008412D000857
:1000B000792A0008412D0008412D0008412D000833
:1000C000412D0008412D0008412D0008412D000858
:1000D000412D0008412D0008412D0008412D000848
:1000E000412D0008412D000800000000412D0008AE
:1000F000412D0008412D0008412D0008412D000828
:10010000412D0008412D0008412D0008412D000817
:10011000412D0008412D0008412D0008412D000807
:10012000412D0008412D0008412D0008412D0008F7
:10013000412D0008412D0008412D0008412D0008E7
:1001400000000000000000000000000000000000AF
:10015000412D0008412D0008412D0008412D0008C7
:10016000412D0008412D0008412D0008412D0008B7
:10017000412D0008412D0008412D0008000000001D
:10018000412D0008412D0008412D0008412D000897
:10019000412D0008412D0008412D0008412D000887
:1001A000412D0008412D0008412D0008412D000877
:1001B000412D0008412D0008412D0008412D000867
:1001C000412D0008412D0008412D0008412D000857
:1001D000412D0008412D0008412D0008412D000847
:1001E000412D0008412D0008412D0008412D000837
:1001F000412D0008412D0008412D0008412D000827
:10020000412D0008412D0008412D0008412D000816
:10021000412D0008412D0008412D0008412D000806
:10022000412D0008412D0008412D0008000000006C
:10023000412D0008412D000800000000412D00085C
:10024000412D0008412D0008412D0008412D0008D6
:10025000412D0008412D0008412D0008412D0008C6
:10026000412D0008412D0008412D0008412D0008B6
:10027000412D0008412D0008412D0008000000001C
:10028000412D0008412D0008412D0008000000000C
:0802900000000000412D0008F0
:1002A00010B5054C237833B9044B13B10448AFF3B0
:1002B00000800123237010BDE00100240000000035
:1002C00050E6000808B5034B1BB103490348AFF3E0
:1002D000008008BD00000000E401002450E6000892
:1002E00001F0FF01102A2BDB10F0070F08D010F8E7
:1002F000013B013A8B422DD010F0070F42B3F6D1EB
:10030000F0B441EA012141EA014122F007047FF003
:1003100000070023F0E80256083C85EA010586EA5A
:10032000010685FA47F5A3FA87F586FA47F6A5FA96
:1003300087F68EB9EED1F0BC01F0FF0102F00702A2
:1003400032B110F8013B013A83EA010313B1F8D14D
:100350000020704701387047002D06BF354603382E
:10036000073815F0010F07D1013015F4807F02BF67
:10037000013015F4C03F0130F0BC0138704700BFB8
:10038000034613F8012B002AFBD1181A01387047D5
:1003900081F0004102E000BF83F0004330B54FEA36
:1003A00041044FEA430594EA050F08BF90EA020FA3
:1003B0001FBF54EA000C55EA020C7FEA645C7FEA36
:1003C000655C00F0E2804FEA5454D4EB5555B8BF59
:1003D0006D420CDD2C4480EA020281EA030382EACA
:1003E000000083EA010180EA020281EA0303362D5C
:1003F00088BF30BD11F0004F4FEA01314FF4801C2F
:100400004CEA113102D0404261EB410113F0004F40
:100410004FEA03334CEA133302D0524263EB4303F7
:1004200094EA050F00F0A780A4F10104D5F1200E95
:100430000DDB02FA0EFC22FA05F2801841F10001F0
:1004400003FA0EF2801843FA05F359410EE0A5F1C4
:1004500020050EF1200E012A03FA0EFC28BF4CF0F5
:10046000020C43FA05F3C01851EBE37101F00045AB
:1004700007D54FF0000EDCF1000C7EEB00006EEBB8
:100480000101B1F5801F1BD3B1F5001F0CD3490842
:100490005FEA30004FEA3C0C04F101044FEA445299
:1004A00012F5800F80F09A80BCF1004F08BF5FEA20
:1004B000500C50F1000041EB045141EA050130BD00
:1004C0005FEA4C0C404141EB0101013C28BFB1F512
:1004D000801FE9D291F0000F04BF01460020B1FA5D
:1004E00081F308BF2033A3F10B03B3F120020CDA30
:1004F0000C3208DD02F1140CC2F10C0201FA0CF00E
:1005000021FA02F10CE002F11402D8BFC2F1200C72
:1005100001FA02F120FA0CFCDCBF41EA0C01904028
:10052000E41AA2BF01EB0451294330BD6FEA040471
:100530001F3C1CDA0C340EDC04F11404C4F120025C
:1005400020FA04F001FA02F340EA030021FA04F36E
:1005500045EA030130BDC4F10C04C4F1200220FAC5
:1005600002F001FA04F340EA0300294630BD21FA03
:1005700004F0294630BD94F0000F83F4801306BFC9
:1005800081F480110134013D4EE77FEA645C18BFBD
:100590007FEA655C29D094EA050F08BF90EA020F54
:1005A00005D054EA000C04BF1946104630BD91EA4C
:1005B000030F1EBF0021002030BD5FEA545C05D14F
:1005C0004000494128BF41F0004130BD14F580048E
:1005D0003CBF01F5801130BD01F0004545F0FE4102
:1005E00041F470014FF0000030BD7FEA645C1ABF37
:1005F000194610467FEA655C1CBF0B46024650EA6E
:10060000013406BF52EA033591EA030F41F4002199
:1006100030BD00BF90F0000F04BF0021704730B51F
:100620004FF4806404F132044FF000054FF00001F4
:1006300050E700BF90F0000F04BF0021704730B5B5
:100640004FF4806404F1320410F0004548BF40428A
:100650004FF000013EE700BF42004FEAE2014FEADF
:1006600031014FEA02701FBF12F07F4393F07F4FBA
:1006700081F06051704732F07F4208BF704793F0BD
:100680007F4F04BF41F40021704730B54FF46074D0
:1006900001F0004521F000411CE700BF50EA0102D3
:1006A00008BF704730B54FF000050AE050EA01027C
:1006B00008BF704730B511F0004502D5404261EBEC
:1006C00041014FF4806404F132045FEA915C3FF42D
:1006D000D8AE4FF003025FEADC0C18BF03325FEACA
:1006E000DC0C18BF033202EBDC02C2F1200300FA7B
:1006F00003FC20FA02F001FA03FE40EA0E0021FAA0
:1007000002F11444BDE600BF53B94AB9002908BF3D
:1007100000281CBF4FF0FF314FF0FF3000F0C0B990
:10072000ADF1080C6DE904CE00F03EF8DDF804E010
:10073000DDE9022304B0704708B502460B4643ECDE
:10074000172BB5EEC07BF1EE10FA03D4BDE80840DC
:1007500000F00AB8B1EE477B51EC170B00F004F83B
:10076000404261EB410108BD9FED0B6B41EC170B63
:100770009FED0B5B27EE066BBCEEC66BB8EE464BEF
:10078000A4EE457BFCEEC77B16EE101A17EE900A1E
:10079000704700BFAFF30080000000000000F03D94
:1007A000000000000000F0412DE9F047089D8E4652
:1007B00004468846002B4AD18A42174662D9B2FACB
:1007C00082F64EB1C6F1200301FA06F820FA03F3CF
:1007D000B74043EA0808B4404FEA174E1FFA87FCB7
:1007E000B8FBFEF1230C0EFB118843EA084301FB22
:1007F0000CF29A4209D9FB1801F1FF3080F0EA802F
:100800009A4240F2E78002393B449A1AA3B2B2FB03
:10081000FEF00EFB102243EA024300FB0CFC9C4559
:1008200009D9FB1800F1FF3280F0D6809C4540F2D8
:10083000D3803B44023840EA0140A3EB0C03002183
:100840001DB1F3400022C5E90032BDE8F0878B42BC
:1008500005D90DB1C5E9000100210846F5E7B3FA55
:1008600083F1002946D1734502D3824200F205810B
:10087000841A6EEB030201209046002DE5D0C5E9F5
:100880000048E2E7002A00F09080B2FA82F6002EDB
:1008900040F0A4808A1A030C4FEA174E80B2BCB213
:1008A0000121B2FBFEFC0EFB1C2243EA024304FBC7
:1008B0000CF29A4207D9FB180CF1FF3802D29A4287
:1008C00000F2E080C4469B1AB3FBFEF20EFB12332B
:1008D00040EA034302FB04F49C4207D9FB1802F1EF
:1008E000FF3002D29C4200F2CA8002461B1B42EA41
:1008F0000C40A5E7C1F120068B4022FA06F71F4302
:100900000EFA01F420FA06F32EFA06FE4FEA174912
:10091000234300FA01F81FFA87FCBEFBF9F01C0C18
:1009200009FB10EE44EA0E4400FB0CFEA64502FA59
:1009300001F209D93C1900F1FF3A80F09C80A645EC
:1009400040F2998002383C44A4EB0E041FFA83FE67
:10095000B4FBF9F309FB13444EEA044403FB0CFC1B
:10096000A44508D93C1903F1FF3E80F08280A445DC
:100970007FD9023B3C4443EA0040A4EB0C04A0FBBB
:1009800002EC64457346E14662D35FD05DB1B8EBDB
:10099000030264EB090404FA06F622FA01F31E438B
:1009A000CC40C5E9006400214FE7B1FBF2FC010C2B
:1009B00041EA0E4180B240EA01423B4638463C469D
:1009C000B846BE462026B1FBF7F1A2EB080241EA89
:1009D0000C4166E7014618E710462CE7C6F12002F5
:1009E0002EFA02F3B740B14020FA02F24FEA174E56
:1009F0000A43B3FBFEF8BCB20EFB1833110C41EAFC
:100A0000034108FB04F9B04089454FEA104380B226
:100A10003ED9791808F1FF3C01D289451FD8A1EBD6
:100A20000901B1FBFEF909FB04F80EFB191192B2A2
:100A300042EA0142424529D2BA1809F1FF31C4D233
:100A40004245C2D2A9F102013A44BEE7F0459DD227
:100A5000BEEB02036CEB070C0138E14696E7A7EB0F
:100A600009094944A8F1020CB1FBFEF909FB04F89D
:100A7000DBE773467FE7504666E70846FDE63B4402
:100A8000023A33E7ACF1020C3B441CE749469CE7D1
:100A9000A1EB0901C446B1FBFEF909FB04F8C4E768
:100AA000704700BF80B592B000AFF86187ED060ACD
:100AB000C7ED050A87ED041AC7ED031A87ED022A70
:100AC000C7ED012AD7ED037AF5EE407AF1EE10FA80
:100AD0000ED1D7ED027AF5EE407AF1EE10FA07D199
:100AE000D7ED017AF5EE407AF1EE10FA00F036819A
:100AF000D7ED037A27EEA77AD7ED027A67EEA77AC9
:100B000037EE277AD7ED017A67EEA77A77EE277A64
:100B1000B0EE670A00F03CFA87ED110A97ED037A10
:100B2000D7ED117A67EE277AC7ED037A97ED027A4F
:100B3000D7ED117A67EE277AC7ED027A97ED017A41
:100B4000D7ED117A67EE277AC7ED017AFB69043396
:100B500093ED007AFB690C33D3ED007A27EE277A08
:100B6000FB69D3ED006AFB690833D3ED007A66EECA
:100B7000A77A77EE677AC7ED107AFB6993ED007A72
:100B8000FB690433D3ED007A27EE277AFB6908333B
:100B9000D3ED006AFB690C33D3ED007A66EEA77AD9
:100BA00077EE277AC7ED0F7AFB6993ED007AFB6940
:100BB000D3ED007A67EE277AB6EE007A37EEC77A81
:100BC000FB690C33D3ED006AFB690C33D3ED007A7B
:100BD00066EEA77A77EE277AC7ED0E7A97ED027A5E
:100BE000D7ED0E7A27EE277AD7ED016AD7ED0F7A87
:100BF00066EEA77A77EE677AC7ED0D7A97ED017A00
:100C0000D7ED107A27EE277AD7ED036AD7ED0E7A63
:100C100066EEA77A77EE677AC7ED0C7A97ED037ADE
:100C2000D7ED0F7A27EE277AD7ED026AD7ED107A43
:100C300066EEA77A77EE677AC7ED0B7ACD4BD3EDE8
:100C4000007AF5EEC07AF1EE10FA54DDC94B93ED5F
:100C5000007AD7ED0D7A67EE277A9FEDC77A27EEF7
:100C6000877AC64BD3ED007A77EE277AC34BC3ED74
:100C7000007AC04B93ED007AD7ED0C7A67EE277AB5
:100C80009FEDBD7A27EE877ABD4BD3ED007A77EEE4
:100C9000277ABB4BC3ED007AB64B93ED007AD7EDC4
:100CA0000B7A67EE277A9FEDB47A27EE877AB54BF9
:100CB000D3ED007A77EE277AB24BC3ED007AAF4BD3
:100CC000D3ED007A97ED067A77EE277AC7ED067AAC
:100CD000AB4BD3ED007A97ED057A77EE277AC7ED27
:100CE000057AA84BD3ED007A97ED047A77EE277A50
:100CF000C7ED047A0BE0A14B4FF000021A60A04B45
:100D00004FF000021A609F4B4FF000021A609E4B9A
:100D100093ED007AD7ED0D7A67EE277A97ED067A94
:100D200077EE277AC7ED067A974B93ED007AD7EDE9
:100D30000C7A67EE277A97ED057A77EE277AC7ED7A
:100D4000057A914B93ED007AD7ED0B7A67EE277A0F
:100D500097ED047A77EE277AC7ED047AD7ED067A15
:100D60009FED8A7A67EE877AC7ED067AD7ED057A26
:100D70009FED867A67EE877AC7ED057AD7ED047A1C
:100D80009FED827A67EE877AC7ED047AFB691B686C
:100D9000BB62FB695B687B62FB699B683B62FB69CA
:100DA00093ED007AD7ED097AF1EE676AD7ED067A0E
:100DB00066EEA76A97ED086AD7ED057A66EE277AA0
:100DC00076EEE76AFB690C3393ED006AD7ED047A9F
:100DD00066EE277A76EEE77A77EE277AFB69C3ED3F
:100DE000007AFB69043393ED007AD7ED0A6AD7EDF8
:100DF000067A66EEA76A97ED086AD7ED047A66EE82
:100E0000277A76EEA76AFB690C3393ED006AD7ED7B
:100E1000057A66EE277A76EEE77AFB69043377EE99
:100E2000277AC3ED007AFB69083393ED007AD7ED9A
:100E30000A6AD7ED057A66EEA76A97ED096AD7EDDB
:100E4000047A66EE277A76EEE76AFB690C3393ED57
:100E5000006AD7ED067A66EE277A76EEA77AFB6906
:100E6000083377EE277AC3ED007AFB690C3393EDF4
:100E7000007AD7ED0A6AD7ED047A66EEA76A97ED95
:100E8000096AD7ED057A66EE277A76EEA76A97EDBE
:100E9000086AD7ED067A66EE277A76EEE77AFB697E
:100EA0000C3377EE277AC3ED007AFB6993ED007A75
:100EB000FB69D3ED007A27EE277AFB690433D3ED83
:100EC000006AFB690433D3ED007A66EEA77A37EE49
:100ED000277AFB690833D3ED006AFB690833D3ED49
:100EE000007A66EEA77A37EE277AFB690C33D3EDEA
:100EF000006AFB690C33D3ED007A66EEA77A77EED1
:100F0000277AB0EE670A00F043F887ED110AFB6913
:100F100093ED007AD7ED117A67EE277AFB69C3ED7E
:100F2000007AFB69043393ED007AFB690433D7ED53
:100F3000117A67EE277AC3ED007AFB69083393EDE7
:100F4000007AFB690833D7ED117A67EE277AC3ED93
:100F5000007AFB690C3393ED007AFB690C33D7ED13
:100F6000117A67EE277AC3ED007A00BF4837BD4695
:100F700080BD00BFFC0100240E745A3B0002002417
:100F80000402002408020024000000240E74DA3A4F
:100F900080B487B000AF87ED010AD7ED017AB6EED5
:100FA000007A67EE877AC7ED057A7B683B6107F1C7
:100FB00010031B68FB60FB685A10124B9B1AFB6006
:100FC00007F10C031B683B6197ED047AD7ED057AB6
:100FD00027EE277AD7ED047A67EE277AB7EE087AFC
:100FE00037EE677AD7ED047A67EE277AC7ED047A91
:100FF0003B6907EE903AB0EE670A1C37BD465DF8D4
:10100000047B7047DF59375F80B400AF7C4B1B888F
:1010100007EE903AB8EE677B9FED636B27EE067B99
:10102000784B83ED007B764B5B8807EE903AB8EE09
:10103000676B9FED5F5B86EE057B724B83ED027BFA
:101040006F4B93F9043007EE903AB8EEE76B9FEDE3
:101050005A5B86EE057B6B4B83ED047B684BB3F9E3
:10106000063007EE903AB8EEE77B9FED556B37EE12
:10107000466B9FED555B86EE057B624B83ED067BF1
:101080005F4BB3F9083007EE903AB8EEE77B9FED7F
:101090004C6B37EE466B9FED4E5B86EE057B594BF6
:1010A00083ED087B564B93F90A3007EE903AB8EE81
:1010B000E76B9FED495B86EE057B524B83ED0A7B28
:1010C0004F4B93F90B3007EE903AB8EEE76B9FED7C
:1010D000445B86EE057B4B4B83ED0C7B484B9B8939
:1010E00007EE903AB8EE677BB2EE006B27EE067B18
:1010F000444B83ED0E7B424BDB8907EE903AB8EE12
:10110000676B9FED395B86EE057B3E4B83ED107B75
:101110003B4B93F9103007EE903AB8EEE76B9FED3A
:10112000225B86EE057B374B83ED127B344B93F9C4
:10113000113007EE903AB8EEE76B9FED2D5B86EE2F
:10114000057B304B83ED147B2D4BB3F9123007EE4A
:10115000903AB8EEE76B9FED185B86EE057B294B66
:1011600083ED167B264B93F9143007EE903AB8EED8
:10117000E76B9FED115B86EE057B224B83ED187BC1
:101180001F4B93F9153007EE903AB8EEE76B9FEDE1
:101190001A5B86EE057B1B4B83ED1A7B00BFBD46B9
:1011A0005DF8047B704700BF000000000000704045
:1011B000000000000000D041000000000000F042EC
:1011C000000000000000D04000000000000030419E
:1011D000000000000000C041000000000000F041DD
:1011E00000000000000040420000000000005040ED
:1011F000000000000000E04000000000000000448B
:101200000C0200242802002480B582B000AF0346FF
:101210000A46FB711346BB71002240210B4802F0C5
:101220008BF9F91D64230122094805F00FF9B91D56
:1012300064230122064805F009F9012240210348F0
:1012400002F07AF900BF0837BD4680BD00000258A1
:101250004803002480B584B000AF03463960FB71B9
:101260001346BB71FB7963F07F03DBB27B73002213
:101270004021174802F060F907F10D0164230122B3
:10128000144805F0E3F80346FB73FB7B002B01D009
:1012900000F0D4FE07F10E01642301220D4805F091
:1012A000C3FABB799AB2642339680A4805F0BCFADC
:1012B0000346FB73FB7B002B01D000F0BFFE012235
:1012C0004021034802F038F900BF1037BD4680BD09
:1012D000000002584803002480B588B000AFB62152
:1012E0007E20FFF791FF0A2001F0BEFD07F1080301
:1012F000152219463120FFF7ADFF3B1D022219468A
:101300000020FFF7A7FF3B7A1AB27B7A1BB21B02C1
:101310001BB213431BB29AB23B4B1A80BB7A1AB270
:10132000FB7A1BB21B021BB213431BB29AB2364BA1
:101330005A803B7B5AB2344B1A717B7B1AB2BB7B0F
:101340001BB21B021BB213431AB22F4BDA80FB7B7A
:101350001AB23B7C1BB21B021BB213431AB22A4BBC
:101360001A817B7C5AB2284B9A72BB7C5AB2264BAC
:10137000DA72FB7C1AB23B7D1BB21B021BB2134319
:101380001BB29AB2204B9A817B7D1AB2BB7D1BB2F5
:101390001B021BB213431BB29AB21B4BDA81FB7DBB
:1013A0005AB2194B1A743B7E5AB2174B5A747B7E51
:1013B0001AB2BB7E1BB21B021BB213431AB2124BF2
:1013C0005A82FB7E5AB2104B1A753B7F5AB20E4BB3
:1013D0005A75FFF719FE00211A20FFF715FF332178
:1013E0001B20FFF711FF03211C20FFF70DFF022137
:1013F0001D20FFF709FF04211F20FFF705FF00BF95
:101400002037BD4680BD00BF0C02002480B582B0ED
:1014100000AF3B46062219460420FFF71BFFBB78AE
:101420001A047B781B0213433A7813431A46084B7D
:101430005A607B791A043B791B021343FA781343F1
:101440001A46034B1A6000BF0837BD4680BD00BF77
:10145000A002002480B487B000AF78607B6807EEFC
:10146000903AB8EE676B164B93ED007B36EE477BF8
:1014700087ED047B124B93ED027B97ED046B26EE18
:10148000077B87ED027B97ED047B27EE076B0C4B08
:1014900093ED047B26EE076B97ED027B36EE077B20
:1014A000074B83ED1C7B064BD3E91C2343EC172B26
:1014B000B0EE470B1C37BD465DF8047B704700BF9C
:1014C0002802002480B491B000AF78606E4B93ED99
:1014D000106B6D4B93ED1C7B26EE077B87ED0E7B2F
:1014E000694B93ED126B684B93ED1C7B26EE076BFB
:1014F000654B93ED1C7B26EE077B87ED0C7B624BE7
:1015000093ED146B604B93ED1C7B26EE076B5E4BEB
:1015100093ED1C7B26EE076B5B4B93ED1C7B26EE5D
:10152000077B87ED0A7B584B93ED0E6B97ED0E7B97
:1015300036EE076B97ED0C7B36EE077B97ED0A6B6B
:1015400036EE077B87ED087B4F4B93ED086B4E4BD8
:1015500093ED1C7B26EE077B87ED0E7B4A4B93EDCC
:101560000A6B494B93ED1C7B26EE076B464B93EDC4
:101570001C7B26EE077B87ED0C7B434B93ED0C6BBE
:10158000414B93ED1C7B26EE076B3F4B93ED1C7B91
:1015900026EE076B3C4B93ED1C7B26EE077B87ED1D
:1015A0000A7B7B6807EE903AB8EE676B364B93ED9B
:1015B000065B97ED0E7B35EE075B97ED0C7B35EE0A
:1015C000075B97ED0A7B35EE077B26EE077B87ED01
:1015D000067B7B6807EE903AB8EE676B7B6807EE98
:1015E000903AB8EE677B26EE077B87ED0E7B264BA5
:1015F00093ED166B244B93ED185B234B93ED1C7B03
:1016000025EE077B36EE077B87ED0C7B97ED0E6BA7
:1016100097ED0C7B26EE077B87ED0A7B7B6807EE58
:10162000903AB8EE676B7B6807EE903AB8EE677B4E
:1016300026EE076B7B6807EE903AB8EE677B26EEE6
:10164000076B114B93ED1A7B26EE077B97ED0A6B28
:1016500036EE077B87ED047B97ED086B97ED067BF5
:1016600036EE077B97ED046B36EE077B87ED027B4A
:10167000D7E9022343EC172BB0EE470B4437BD46A6
:101680005DF8047B704700BF2802002400000000C2
:1016900080B584B000AF87ED000B97ED007B9FED28
:1016A000105B87EE056B9FED101BB0EE460B0CF048
:1016B000ABFAB0EE407BB7EE006B36EE477B9FEDAA
:1016C0000C6B27EE067B87ED027BD7E9022343EC08
:1016D000172BB0EE470B1037BD4680BDAFF300802F
:1016E00000000000C0E0F840C90050C58D5BC83F55
:1016F0000000000040A5E54080B500AFFFF786FE82
:10170000104B1B681846FFF7A5FEB0EE407B0E4B52
:1017100083ED007B0B4B5B681846FFF7D3FEB0EE02
:10172000407B094B83ED027B074B93ED027BB0EED0
:10173000470BFFF7ADFFB0EE407B044B83ED007B22
:1017400000BF80BDA0020024A8020024B80200242B
:1017500080B483B000AF78604FF06043D3F8803E30
:1017600003F00103002B13D04FF06043D3F8003E89
:1017700003F00103002B0BD000E000BF4FF06043EB
:101780001B68002BF9D04FF060437A68D2B21A7010
:101790007B6818460C37BD465DF8047B7047000037
:1017A00080B58AB000AF00F01DFC01F0CBFA00F06C
:1017B0005FF800F0DFFA00F091FA00F0D5F800F0E1
:1017C0003FFA00F029F900F07FF9224805F0DEFB2E
:1017D000214805F0DBFB00211F4805F0B1FC042186
:1017E0001D4805F0ADFC3B4628220021184609F0B3
:1017F00085FC00F08BFCFFF76FFD184B1B78DBB20C
:10180000002B06D0154B00221A7000F061FDFFF787
:1018100073FF134B1B78DBB2002BEED0104B002272
:101820001A70104BD3ED017AB0EE670A0A4800F047
:10183000F5FA03461A460C4B1A800A4BD3ED007A90
:10184000B0EE670A044800F03DFB03461A46074B1A
:101850001A80D2E71C040024D0030024FC040024D6
:10186000FD04002448050024FE0400240005002493
:1018700080B59CB000AF07F124034C22002118462C
:1018800009F03CFC3B1D20220021184609F036FCE3
:10189000022001F06BFE00233B60314B9B69304A14
:1018A00043F4404393612E4B9B6903F440433B60F8
:1018B0002C4BDB6A2B4A43F00103D362294BDB6AD2
:1018C00003F001033B603B6800BF254B9B6903F4B9
:1018D0000053B3F5005FF8D102237B6201233B6321
:1018E00040237B630223BB640023FB6404233B652A
:1018F0003C237B650223BB650523FB6502233B6616
:101900000C237B660023BB660023FB6607F12403E0
:10191000184601F065FE0346002B01D000F08EFB57
:101920003F237B600323BB600023FB6008233B61F4
:1019300040237B614023BB614FF48063FB61402304
:101940003B623B1D0421184602F0A4FA0346002B1B
:1019500001D000F073FB00BF7037BD4680BD00BFF3
:10196000004802580004005880B500AF284B294AAF
:101970001A60274B4FF480025A60254B00229A6070
:10198000234B0722DA60224B4FF000721A61204B82
:101990004FF080725A611E4B4FF080629A611C4B6F
:1019A0004FF08042DA611A4B00221A62184B002273
:1019B0005A62174B00229A62154B0022DA62144BCE
:1019C0004FF080425A63124B00229A63104B002260
:1019D000DA630F4B00221A640D4B00225A640C4B41
:1019E00000229A640A4B0022DA64094B00221A652D
:1019F000074B00225A65064B00229A65044804F002
:101A000001FC0346002B01D000F018FB00BF80BD95
:101A1000C00200240030014080B500AF284B294AA5
:101A20001A60274B4FF480025A60254B00229A60BF
:101A3000234B0722DA60224B4FF000721A61204BD1
:101A40004FF080725A611E4B4FF080629A611C4BBE
:101A50004FF0C042DA611A4B00221A62184B002282
:101A60005A62174B00229A62154B0022DA62144B1D
:101A70004FF080425A63124B00229A63104B0022AF
:101A8000DA630F4B00221A640D4B00225A640C4B90
:101A900000229A640A4B0022DA64094B00221A657C
:101AA000074B00225A65064B00229A65044804F051
:101AB000A9FB0346002B01D000F0C0FA00BF80BD97
:101AC000480300240038004080B59AB000AF07F109
:101AD000580300221A605A609A60DA6007F14C03DA
:101AE00000221A605A609A6007F1300300221A60DF
:101AF0005A609A60DA601A615A619A613B1D2C2221
:101B00000021184609F0FAFA4B4B4C4A1A604A4B2E
:101B100077225A60484B00229A60474B44F61F6276
:101B2000DA60454B00221A61434B00225A61424B56
:101B300000229A61404805F0D2F90346002B01D0FB
:101B400000F07CFA4FF48053BB6507F15803194647
:101B5000394805F01FFE0346002B01D000F06EFA55
:101B6000354805F08BFA0346002B01D000F066FAE9
:101B70000023FB6400233B6500237B6507F14C03D6
:101B800019462D4806F060FB0346002B01D000F0FB
:101B900055FA60233B6340F2DC537B630023BB6355
:101BA0000023FB6300233B6400237B640023BB64AE
:101BB00007F13003002219461F4805F0D7FC034601
:101BC000002B01D000F03AFA40F2DB537B6307F1BF
:101BD000300304221946184805F0C8FC0346002BC0
:101BE00001D000F02BFA00237B600023BB600023B0
:101BF000FB6000233B6100237B614FF40053BB611A
:101C00000023FB6100233B624FF000737B620023E3
:101C1000BB620023FB623B1D1946074806F0A2FB8E
:101C20000346002B01D000F009FA034800F046FEFD
:101C300000BF6837BD4680BDD003002400000140CE
:101C400080B588B000AF07F1100300221A605A6017
:101C50009A60DA603B1D00221A605A609A601E4B3F
:101C60004FF080421A601C4B40F21F325A601A4BF0
:101C700000229A60184B40F2E732DA60164B0022DD
:101C80001A61154B00229A61134805F028F90346A2
:101C9000002B01D000F0D2F94FF480533B6107F1E3
:101CA000100319460C4805F075FD0346002B01D0C2
:101CB00000F0C4F900237B600023FB603B1D194644
:101CC000054806F0C1FA0346002B01D000F0B6F932
:101CD00000BF2037BD4680BD1C04002480B500AF86
:101CE000224B234A1A60214B4FF4E1325A601F4BBA
:101CF00000229A601D4B0022DA601C4B00221A6100
:101D00001A4B0C225A61194B00229A61174B002280
:101D1000DA61164B00221A62144B00225A62134BEE
:101D200000229A62114806F0B9FB0346002B01D04D
:101D300000F084F900210D4807F0C1FB0346002B99
:101D400001D000F07BF90021084807F0F6FB0346BC
:101D5000002B01D000F072F9044807F077FB03462E
:101D6000002B01D000F06AF900BF80BD6804002498
:101D70000044004080B588B000AF07F10C0300229A
:101D80001A605A609A60DA601A61224BD3F8E03028
:101D9000204A43F00103C2F8E0301E4BD3F8E03094
:101DA00003F00103BB60BB681A4BD3F8E030194A5B
:101DB00043F01003C2F8E030164BD3F8E03003F0E4
:101DC00010037B607B68134BD3F8E030114A43F07B
:101DD0000203C2F8E0300F4BD3F8E03003F0020307
:101DE0003B603B68002260210B4801F0A5FB6023AB
:101DF000FB6001233B6100237B610023BB6107F192
:101E00000C031946044801F0E7F900BF2037BD462E
:101E100080BD00BF004402580000025880B487B063
:101E200000AF786087ED000AD7ED007A9FED1E7A4B
:101E3000F4EEC77AF1EE10FA01D51C4B3B60D7EDFA
:101E4000007A9FED1B7AF4EEC77AF1EE10FA01DD0D
:101E5000184B3B60D7ED007A9FED157A77EE877AC5
:101E6000C7ED057AD7ED057A9FED137A27EE877ACD
:101E7000DFED126AC7EE267A9FED117A77EE877A48
:101E8000C7ED047AD7ED047AFCEEE77A17EE903AC4
:101E9000FB817B681B68FA895A63FB8918461C37EB
:101EA000BD465DF8047B70470000B4C20000B4C2B8
:101EB0000000B4420000B4420000E144000034439A
:101EC0000000164480B487B000AF786087ED000A48
:101ED000D7ED007A9FED1E7AF4EEC77AF1EE10FA94
:101EE00001D51C4B3B60D7ED007A9FED1B7AF4EED9
:101EF000C77AF1EE10FA01DD184B3B60D7ED007A9E
:101F00009FED157A77EE877AC7ED057AD7ED057ADA
:101F10009FED137A27EE877ADFED126AC7EE267AF5
:101F20009FED117A77EE877AC7ED047AD7ED047AC0
:101F3000FCEEE77A17EE903AFB817B681B68FA8922
:101F40009A63FB8918461C37BD465DF8047B7047D1
:101F50000000B4C20000B4C20000B4420000B442A9
:101F60000000E144000034430000164480B483B014
:101F700000AF78607B68094A934202D1084B012286
:101F80001A707B68074A934202D1074B01221A70EC
:101F900000BF0C37BD465DF8047B70471C0400246D
:101FA000FC040024D0030024FD04002480B586B086
:101FB00000AFF860B9607A6000237B6109E0BB681C
:101FC0005A1CBA601B781846FFF7C2FB7B690133C5
:101FD0007B617A697B689A42F1DB7B681846183727
:101FE000BD4680BD80B584B000AF3B4600221A607C
:101FF0005A609A60DA6001F077F801233B700023A1
:102000007B7000237B601F233B7287237B7200233E
:10201000BB720023FB7201233B7301237B730023FC
:10202000BB730023FB733B46184601F095F8042070
:1020300001F072F800BF1037BD4680BD80B400AF1C
:1020400072B600BF00BFFDE780B582B000AF0346A7
:102050000A46FB711346BB71002220210B4801F098
:102060006BFAF91D64230122094804F0EFF9B91D48
:1020700064230122064804F0E9F9012220210348E3
:1020800001F05AFA00BF0837BD4680BD0000025873
:10209000C002002480B584B000AF03463960FB71F4
:1020A0001346BB71FB7963F07F03DBB2BB73002285
:1020B0002021144801F040FA07F10E0164230122A7
:1020C000114804F0C3F90346FB73FB7B002B01D0DE
:1020D000FFF7B4FFBB799AB2642339680A4804F069
:1020E000A3FB0346FB73FB7B002B01D0FFF7A6FF8E
:1020F00001222021034801F01FFA00BF1037BD461E
:1021000080BD00BF00000258C002002480B500AFAF
:1021100005211A20FFF798FF10211C20FFF794FFDC
:1021200008211B20FFF790FF40F2DC5000F014F86C
:10213000084B4FF07E521A60064B4FF000025A6077
:10214000044B4FF000029A60024B4FF00002DA603D
:1021500000BF80BD5405002480B586B000AF0346A3
:10216000FB8000237B6100233B610023FB60FB8835
:10217000002B01D10123FB8000237B811CE000F0B8
:1021800055F8284BDB881BB21A467B6913447B61E8
:10219000244B1B891BB21A463B6913443B61214BFC
:1021A0005B891BB21A46FB681344FB60032000F0F6
:1021B0005BFE7B8901337B817A89FB889A42DED37F
:1021C0007B6907EE903AF8EEE76AFB8807EE903AF3
:1021D000B8EE677AC6EE877A134BC3ED007A3B6997
:1021E00007EE903AF8EEE76AFB8807EE903AB8EE11
:1021F000677AC6EE877A0C4BC3ED017AFB6807EE6F
:10220000903AF8EEE76AFB8807EE903AB8EE677A04
:10221000C6EE877A044BC3ED027A00BF1837BD467D
:1022200080BD00BF040500241805002480B582B0DD
:1022300000AF3B46062219463B20FFF72BFF3B78B9
:102240001BB21B021AB27B781BB213431AB21F4B8C
:102250001A80BB781BB21B021AB2FB781BB2134365
:102260001AB21A4B5A803B791BB21B021AB27B7905
:102270001BB213431AB2154B9A803B4606221946ED
:102280004320FFF707FF3B781BB21B021AB27B7893
:102290001BB213431AB20D4BDA80BB781BB21B0280
:1022A0001AB2FB781BB213431AB2084B1A813B795E
:1022B0001BB21B021AB27B791BB213431AB2034B37
:1022C0005A8100BF0837BD4680BD00BF0405002409
:1022D00080B584B000AFFFF7A9FFC34B1B881BB2CA
:1022E00007EE903AF8EEE77AB7EEE76A9FEDB25B59
:1022F00086EE057B9FEDB26B27EE067BF7EEC77B84
:10230000BA4BC3ED037AB84B5B881BB207EE903A29
:10231000F8EEE77AB7EEE76A9FEDA75B86EE057BFE
:102320009FEDA76B27EE067BF7EEC77BAF4BC3EDA8
:10233000047AAD4B9B881BB207EE903AF8EEE77A31
:10234000B7EEE76A9FED9C5B86EE057B9FED9C6B8D
:1023500027EE067BF7EEC77BA44BC3ED057AA24BB5
:10236000DB881BB207EE903AB8EEE77A9F4BD3EDCD
:10237000007A77EE677AB7EEE76A9FED935B86EEB9
:10238000057B9FED936B27EE066B9FED935B86EECF
:10239000057BF7EEC77B954BC3ED067A924B1B8905
:1023A0001BB207EE903AB8EEE77A904BD3ED017A84
:1023B00077EE677AB7EEE76A9FED835B86EE057B83
:1023C0009FED836B27EE066B9FED835B86EE057BAF
:1023D000F7EEC77B854BC3ED077A834B5B891BB256
:1023E00007EE903AB8EEE77A804BD3ED027A77EEBB
:1023F000677AB7EEE76A9FED745B86EE057B9FED2B
:10240000746B27EE066B9FED745B86EE057BF7EE33
:10241000C77B764BC3ED087A744BD3ED067A734BCA
:1024200093ED077A714BD3ED086A704B93ED036A15
:102430006E4BD3ED045A6D4B93ED055AF0EE452AE1
:10244000B0EE652AF0EE461AB0EE661AF0EE470AD4
:10245000B0EE670A6648FEF725FB654B93ED017AFF
:10246000634BD3ED037A27EE277A614BD3ED006AF5
:102470005F4BD3ED027A66EEA77A77EE677AB8EE15
:10248000007A67EE877AB0EE670A0BF05BFB87EDA8
:10249000030A574B93ED007A554BD3ED017A27EEA3
:1024A000277A534BD3ED026A514BD3ED037A66EE94
:1024B000A77A77EE277A37EEA76A4D4B93ED007A2D
:1024C0004B4BD3ED007A27EE277A494BD3ED036AC5
:1024D000474BD3ED037A66EEA77A77EE277A77EE4D
:1024E000A77AB7EE007A77EEC77AF0EE670AB0EE19
:1024F000460A0BF053FB87ED020A3D4B93ED007A41
:102500003B4BD3ED037A27EE277A394BD3ED016AA3
:10251000374BD3ED027A66EEA77A77EE277A37EE5D
:10252000A76A334B93ED007A314BD3ED007A27EE57
:10253000277A2F4BD3ED016A2D4BD3ED017A66EE4E
:10254000A77A77EE277A77EEA77AB7EE007A77EE5A
:10255000C77AF0EE670AB0EE460A0BF01FFB87ED74
:10256000010AD7ED037AB7EEE77A9FED1D6B27EEF0
:10257000067BF7EEC77B1F4BC3ED017AD7ED027ADE
:10258000B7EEE77A9FED166B27EE067BF7EEC77B7B
:10259000184BC3ED007AD7ED017AB7EEE77A9FEDDD
:1025A000106B27EE067BF7EEC77B124BC3ED027A6A
:1025B00000BF1037BD4680BD000000000000B040E5
:1025C0001F85EB51B89E2340000000000060504082
:1025D000182D4454FB210940000000000080664093
:1025E000F8C1631ADCA54C4004050024180500243A
:1025F000540500244805002480B483B000AF0A4B82
:10260000D3F8F430084A43F00203C2F8F430064B22
:10261000D3F8F43003F002037B607B6800BF0C3713
:10262000BD465DF8047B70470044025880B5BEB0DB
:1026300000AF786007F1E40300221A605A609A60E4
:10264000DA601A6107F12003C0220021184608F061
:1026500055FD7B681B68714A93426AD14FF48052E2
:102660004FF00003C7E908230023C7F8803007F1C3
:102670002003184601F09AFF0346002B01D0FFF714
:10268000DDFC674BD3F8F030654A43F48053C2F861
:10269000F030634BD3F8F03003F48053FB61FB69F7
:1026A0005F4BD3F8E0305E4A43F00103C2F8E030FC
:1026B0005B4BD3F8E03003F00103BB61BB69584BBF
:1026C000D3F8E030564A43F00203C2F8E030544BEE
:1026D000D3F8E03003F002037B617B698023C7F805
:1026E000E4300223C7F8E8300023C7F8EC300023B9
:1026F000C7F8F0300523C7F8F43007F1E4031946B2
:10270000484800F069FD1823C7F8E4300223C7F8F1
:10271000E8300023C7F8EC300023C7F8F030052379
:10272000C7F8F43007F1E40319463F4800F054FDC0
:1027300070E07B681B683D4A93426BD14FF4805236
:102740004FF00003C7E908230023C7F8803007F1E2
:102750002003184601F02AFF0346002B01D0FFF7A3
:102760006DFC2F4BD3F8E8302D4A43F48043C2F878
:10277000E8302B4BD3F8E83003F480433B613B69EE
:10278000274BD3F8E030264A43F00203C2F8E0308A
:10279000234BD3F8E03003F00203FB60FB68204BCF
:1027A000D3F8E0301E4A43F00103C2F8E0301C4B7E
:1027B000D3F8E03003F00103BB60BB684FF4404343
:1027C000C7F8E4300223C7F8E8300023C7F8EC303C
:1027D0000023C7F8F0300523C7F8F43007F1E4030D
:1027E0001946114800F0F8FC4FF40073C7F8E430C4
:1027F0000223C7F8E8300023C7F8EC300023C7F8FD
:10280000F0300523C7F8F43007F1E4031946054812
:1028100000F0E2FC00BFF837BD4680BD003001404B
:1028200000440258000002580004025800380040DA
:1028300080B584B000AF78607B681B681D4A934206
:1028400017D11D4BD3F8F0301B4A43F00103C2F8F7
:10285000F030194BD3F8F03003F00103FB60FB6854
:1028600000220021192000F00AFC192000F021FCB0
:102870001BE07B681B68B3F1804F16D10E4BD3F879
:10288000E8300D4A43F00103C2F8E8300A4BD3F8B0
:10289000E83003F00103BB60BB68002200211C206C
:1028A00000F0EDFB1C2000F004FC00BF1037BD461B
:1028B00080BD00BF000001400044025880B588B0D0
:1028C00000AF786007F10C0300221A605A609A602A
:1028D000DA601A617B681B68134A93421FD1134B5D
:1028E000D3F8E030114A43F01003C2F8E0300F4B48
:1028F000D3F8E03003F01003BB60BB684FF42063F3
:10290000FB6002233B6100237B610023BB61012349
:10291000FB6107F10C031946054800F05DFC00BFA0
:102920002037BD4680BD00BF000001400044025872
:102930000010025880B5BAB000AF786007F1D40338
:1029400000221A605A609A60DA601A6107F1100377
:10295000C0220021184608F0D1FB7B681B68264A7C
:10296000934245D14FF002024FF00003C7E9042320
:102970000023C7F8883007F11003184601F016FE4F
:102980000346002B01D0FFF759FB1C4BD3F8E8306E
:102990001A4A43F40033C2F8E830184BD3F8E83051
:1029A00003F40033FB60FB68144BD3F8E030134AA8
:1029B00043F00103C2F8E030104BD3F8E03003F0ED
:1029C0000103BB60BB680C23C7F8D4300223C7F8EF
:1029D000D8300023C7F8DC300023C7F8E0300723E5
:1029E000C7F8E43007F1D4031946054800F0F4FBBA
:1029F00000BFE837BD4680BD004400400044025897
:102A00000000025880B400AF00BFFDE780B400AF03
:102A100000BFFDE780B400AF00BFFDE780B400AFAA
:102A200000BFFDE780B400AF00BFFDE780B400AF9A
:102A300000BFBD465DF8047B704780B400AF00BFA7
:102A4000BD465DF8047B704780B400AF00BFBD4653
:102A50005DF8047B704780B500AF00F0E5F900BF7A
:102A600080BD000080B500AF024804F077FC00BFD5
:102A700080BD00BFD003002480B500AF024804F041
:102A80006DFC00BF80BD00BF1C04002480B400AFFB
:102A900001231846BD465DF8047B704780B582B0BF
:102AA00000AF7860396008F043FB034616221A60D5
:102AB0004FF0FF3318460837BD4680BD80B582B061
:102AC00000AF78604FF0FF317868FFF7E7FF00BF95
:102AD000FDE780B586B000AFF860B9607A6000238A
:102AE0007B610AE0AFF300800146BB685A1CBA6004
:102AF000CAB21A707B6901337B617A697B689A423A
:102B0000F0DB7B6818461837BD4680BD80B483B0C3
:102B100000AF78604FF0FF3318460C37BD465DF8C4
:102B2000047B704780B483B000AF786039603B6845
:102B30004FF400525A60002318460C37BD465DF82A
:102B4000047B704780B483B000AF786001231846DF
:102B50000C37BD465DF8047B704780B485B000AF8C
:102B6000F860B9607A60002318461437BD465DF8F6
:102B7000047B704780B586B000AF7860144A154B6F
:102B8000D31A7B617B693B61134B1B68002B02D11D
:102B9000114B124A1A60104B1A687B6813443A6949
:102BA0009A4207D208F0C4FA03460C221A604FF08A
:102BB000FF3309E0084B1B68FB60074B1A687B6812
:102BC0001344054A1360FB6818461837BD4680BD9C
:102BD000000008240004000064050024B806002456
:102BE00080B400AF374BD3F88830364A43F47003D3
:102BF000C2F88830344B1B6803F00F03062B07D84C
:102C0000314B1B6823F00F032F4A43F00703136077
:102C10002E4B1B682D4A43F0010313602B4B0022FF
:102C20001A612A4B1A682949294B13400B60264B1D
:102C30001B6803F00803002B07D0234B1B6823F00D
:102C40000F03214A43F007031360204B00229A61CF
:102C50001E4B0022DA611D4B00221A621B4B1D4ADB
:102C60009A621A4B1C4ADA62184B1C4A1A63174BB9
:102C700000225A63154B194A9A63144B0022DA63F7
:102C8000124B164A1A64114B00225A640F4B1B68F0
:102C90000E4A23F4802313600C4B00221A66104B5B
:102CA0001A68104B1340B3F1005F02D20E4B0122A1
:102CB0001A600E4B43F2D2021A6000BFBD465DF8A7
:102CC000047B704700ED00E00020005200440258F1
:102CD0007FEDF6EA000202020000FF01800201011E
:102CE0000010005C0000FFFF08810051004000520E
:102CF000DFF834D0FFF774FF0C480D490D4A00236C
:102D000002E0D458C4500433C4188C42F9D30A4AA0
:102D10000A4C002301E013600432A242FBD308F006
:102D20000DFAFEF73DFD7047000008240000002466
:102D3000DC010024C8030108E0010024B8060024D7
:102D4000FEE7000080B582B000AF032000F08CF9F0
:102D500001F056FA0246154B9B691B0A03F00F035C
:102D60001349CB5C03F01F0322FA03F37B600F4B84
:102D70009B6903F00F030E4AD35C03F01F037A68CC
:102D800022FA03F30B4A13600B4A7B6813600F208F
:102D900000F014F80346002B01D0012302E0FFF7F6
:102DA0002BFC002318460837BD4680BD004402585E
:102DB00068E60008080000240400002480B582B002
:102DC00000AF7860154B1B78002B01D1012321E067
:102DD000134B1A68114B1B7819464FF47A73B3FBE7
:102DE000F1F3B2FBF3F3184600F071F90346002B40
:102DF00001D001230EE07B680F2B0AD800227968EE
:102E00004FF0FF3000F03BF9064A7B681360002367
:102E100000E0012318460837BD4680BD100000249D
:102E2000040000240C00002480B400AF064B1B7883
:102E30001A46064B1B681344044A136000BFBD4684
:102E40005DF8047B704700BF100000246805002473
:102E500080B400AF034B1B681846BD465DF8047B89
:102E6000704700BF6805002480B584B000AF78606B
:102E7000FFF7EEFFB8607B68FB60FB68B3F1FF3FD4
:102E800005D00A4B1B781A46FB681344FB6000BF51
:102E9000FFF7DEFF0246BB68D31AFA689A42F7D8FA
:102EA00000BF00BF1037BD4680BD00BF100000242A
:102EB00080B400AF034B1B681B0C1846BD465DF881
:102EC000047B70470010005C80B485B000AF786070
:102ED0007B6803F00703FB600B4BDB68BB60BA68E1
:102EE0004FF6FF031340BB60FB681A02BB681A432E
:102EF000064B1343BB60044ABB68D36000BF143762
:102F0000BD465DF8047B704700ED00E00000FA0567
:102F100080B400AF044BDB681B0A03F007031846BC
:102F2000BD465DF8047B704700ED00E080B483B0DF
:102F300000AF0346FB80B7F90630002B0BDBFB88A4
:102F400003F01F020749B7F906305B09012000FAB8
:102F500002F241F8232000BF0C37BD465DF8047B28
:102F6000704700BF00E100E080B483B000AF0346CB
:102F70003960FB80B7F90630002B0ADB3B68DAB218
:102F80000C49B7F906301201D2B20B4483F8002382
:102F90000AE03B68DAB20849FB8803F00F03043B00
:102FA0001201D2B20B441A7600BF0C37BD465DF851
:102FB000047B704700E100E000ED00E080B489B0E0
:102FC00000AFF860B9607A60FB6803F00703FB614B
:102FD000FB69C3F10703042B28BF0423BB61FB6912
:102FE0000433062B02D9FB69033B00E000237B611D
:102FF0004FF0FF32BB6902FA03F3DA43BB681A40B1
:103000007B699A404FF0FF317B6901FA03F3D943A2
:103010007B680B40134318462437BD465DF8047B9C
:103020007047000080B582B000AF78607B68013BDC
:10303000B3F1807F01D301230FE00A4A7B68013B93
:1030400053600F214FF0FF30FFF78EFF054B00223A
:103050009A60044B07221A60002318460837BD46C1
:1030600080BD00BF10E000E080B582B000AF7860A6
:103070007868FFF729FF00BF0837BD4680BD80B5DF
:1030800086B000AF0346B9607A60FB81FFF740FF6E
:1030900078617A68B9687869FFF790FF0246B7F9F6
:1030A0000E3011461846FFF75FFF00BF1837BD46C8
:1030B00080BD80B582B000AF0346FB80B7F9063013
:1030C0001846FFF733FF00BF0837BD4680BD80B507
:1030D00082B000AF78607868FFF7A4FF0346184617
:1030E0000837BD4680BD000080B400AFBFF35F8FDE
:1030F00000BF074B5B6A064A23F480335362054BDB
:1031000000225A6000BFBD465DF8047B704700BFD7
:1031100000ED00E090ED00E080B483B000AF786097
:103120000B4A7B6843F0010353600A4B5B6A094A10
:1031300043F480335362BFF34F8F00BFBFF36F8FF1
:1031400000BF00BF0C37BD465DF8047B704700BF71
:1031500090ED00E000ED00E080B483B000AF786057
:103160007B685A781B4B9A601A4B1B69194A23F0EB
:1031700001031361174A7B685B68D3607B681B7B24
:103180001A077B68DB7A1B061A437B689B7ADB0491
:103190001A437B685B7B9B041A437B689B7B5B04C5
:1031A0001A437B68DB7B1B041A437B685B7A1B0238
:1031B0001A437B681B7A5B0013437A6812781146C6
:1031C000044A0B43136100BF0C37BD465DF8047B16
:1031D000704700BF90ED00E080B489B000AF786028
:1031E00039600023FB61894B7B6194E13B681A687D
:1031F0000121FB6901FA03F313403B613B69002B9A
:1032000000F086813B685B6803F00303012B05D067
:103210003B685B6803F00303022B30D17B689B683B
:10322000BB61FB695B00032202FA03F3DB43BA696B
:103230001340BB613B68DA68FB695B0002FA03F389
:10324000BA691343BB617B68BA699A607B685B6843
:10325000BB610122FB6902FA03F3DB43BA69134045
:10326000BB613B685B681B0903F00102FB6902FA62
:1032700003F3BA691343BB617B68BA695A603B6860
:103280005B6803F00303032B17D07B68DB68BB612B
:10329000FB695B00032202FA03F3DB43BA691340C4
:1032A000BB613B689A68FB695B0002FA03F3BA6989
:1032B0001343BB617B68BA69DA603B685B6803F003
:1032C0000303022B23D1FB69DA087B68083253F829
:1032D0002230BB61FB6903F007039B000F2202FA57
:1032E00003F3DB43BA691340BB613B681A69FB69AE
:1032F00003F007039B0002FA03F3BA691343BB61AF
:10330000FB69DA087B680832B96943F822107B68E8
:103310001B68BB61FB695B00032202FA03F3DB431A
:10332000BA691340BB613B685B6803F00302FB6949
:103330005B0002FA03F3BA691343BB617B68BA69A5
:103340001A603B685B6803F44033002B00F0E080B8
:103350002F4BD3F8F4302E4A43F00203C2F8F43076
:103360002B4BD3F8F43003F00203FB60FB68294ACF
:10337000FB699B08023352F82330BB61FB6903F001
:1033800003039B000F2202FA03F3DB43BA691340E5
:10339000BB617B68204A934252D07B681F4A9342AC
:1033A00031D07B681E4A93422BD07B681D4A9342E2
:1033B00025D07B681C4A93421FD07B681B4A9342EE
:1033C00019D07B681A4A934213D07B68194A9342FA
:1033D0000DD07B68184A934207D07B68174A934206
:1033E00001D109232DE00A232BE0082329E007233C
:1033F00027E0062325E0052323E0042321E003231F
:103400001FE002231DE001231BE000BF80000058E5
:1034100000440258000400580000025800040258FA
:1034200000080258000C02580010025800140258FC
:1034300000180258001C02580020025800240258AC
:103440000023FA6902F0030292009340BA69134321
:10345000BB613849FB699B080233BA6941F82320F4
:103460004FF0B0431B68BB613B69DB43BA69134053
:10347000BB613B685B6803F48013002B03D0BA691F
:103480003B691343BB614FF0B042BB6913604FF01F
:10349000B0435B68BB613B69DB43BA691340BB6106
:1034A0003B685B6803F40013002B03D0BA693B69E7
:1034B0001343BB614FF0B042BB6953607B695B68EB
:1034C000BB613B69DB43BA691340BB613B685B6826
:1034D00003F40033002B03D0BA693B691343BB618B
:1034E0007B69BA695A607B691B68BB613B69DB43D6
:1034F000BA691340BB613B685B6803F48033002BFF
:1035000003D0BA693B691343BB617B69BA691A602E
:10351000FB690133FB613B681A68FB6922FA03F31C
:10352000002B7FF463AE00BF00BF2437BD465DF8BB
:10353000047B70470004005880B483B000AF78600B
:103540000B467B8013467B707B78002B03D07A88F8
:103550007B689A6103E07B881A047B689A6100BFEC
:103560000C37BD465DF8047B7047000080B584B021
:1035700000AF7860194BDB6803F00403042B0AD01A
:10358000164BDB6803F007037A689A4201D00123E7
:103590001FE000231DE0114BDB6823F007020F49F9
:1035A0007B681343CB60FFF753FCF86009E0FFF73B
:1035B0004FFC0246FB68D31AB3F57A7F01D9012389
:1035C00007E0064B5B6803F40053B3F5005FEED1F0
:1035D000002318461037BD4680BD00BF0048025882
:1035E00080B58CB000AF78607B68002B02D10123DE
:1035F00000F048BC7B681B6803F00103002B00F05F
:103600008880994B1B6903F03803FB62964B9B6AD9
:10361000BB62FB6A102B07D0FB6A182B11D1BB6A67
:1036200003F00303022B0CD18F4B1B6803F4003310
:10363000002B6DD07B685B68002B69D1012300F003
:1036400021BC7B685B68B3F5803F06D1864B1B6865
:10365000854A43F4803313602EE07B685B68002B5F
:103660000CD1814B1B68804A23F4803313607E4B5E
:103670001B687D4A23F4802313601DE07B685B6830
:10368000B3F5A02F0CD1784B1B68774A43F4802305
:103690001360754B1B68744A43F4803313600BE06E
:1036A000714B1B68704A23F4803313606E4B1B68A8
:1036B0006D4A23F4802313607B685B68002B13D072
:1036C000FFF7C6FB786208E0FFF7C2FB02467B6AA1
:1036D000D31A642B01D90323D4E3634B1B6803F48F
:1036E0000033002BF0D014E0FFF7B2FB786208E063
:1036F000FFF7AEFB02467B6AD31A642B01D9032382
:10370000C0E3594B1B6803F40033002BF0D100E0F9
:1037100000BF7B681B6803F00203002B00F0CA8027
:10372000514B1B6903F038033B624F4B9B6AFB61B3
:103730003B6A002B07D03B6A182B56D1FB6903F07C
:103740000303002B51D1484B1B6803F00403002BEB
:1037500005D07B68DB68002B01D1012392E3424B4B
:103760001B6823F019027B68DB683F4913430B6039
:10377000FFF76EFB786208E0FFF76AFB02467B6AA0
:10378000D31A022B01D903237CE3374B1B6803F0C8
:103790000403002BF0D0FFF78BFB034641F203023A
:1037A000934217D87B681B69402B08D12E4B5B686E
:1037B00023F47C332C4A43F4003353607AE02A4BE1
:1037C0005B6823F47C327B681B691B032649134327
:1037D0004B606FE0244B5B6823F0FE427B681B6903
:1037E0001B06214913434B6064E07B68DB68002BB8
:1037F00047D01D4B1B6823F019027B68DB681A4910
:1038000013430B60FFF724FB786208E0FFF720FB0F
:1038100002467B6AD31A022B01D9032332E3124BEF
:103820001B6803F00403002BF0D0FFF741FB0346B5
:1038300041F20302934219D87B681B69402B08D1DF
:10384000094B5B6823F47C33074A43F4003353602D
:1038500030E0054B5B6823F47C327B681B691B03FB
:10386000014913434B6025E0004402589A4B5B68C2
:1038700023F0FE427B681B691B06974913434B608C
:1038800018E0954B1B68944A23F001031360FFF77F
:10389000DFFA786208E0FFF7DBFA02467B6AD31AA8
:1038A000022B01D90323EDE28B4B1B6803F00403C9
:1038B000002BF0D17B681B6803F01003002B00F095
:1038C000A980854B1B6903F03803BB61824B9B6A5F
:1038D0007B61BB69082B07D0BB69182B3AD17B6988
:1038E00003F00303012B35D17B4B1B6803F480737A
:1038F000002B05D07B68DB69802B01D00123C1E25E
:10390000FFF7D6FA034641F20302934217D87B68C9
:103910001B6A202B08D1704B5B6823F0F8436E4A7A
:1039200043F08043536075E06B4B5B6823F0F842D3
:103930007B681B6A9B06684913434B606AE0664BD1
:10394000DB6823F07C527B681B6A1B0662491343C9
:10395000CB605FE07B68DB69002B42D05E4B1B686D
:103960005D4A43F080031360FFF772FA786208E063
:10397000FFF76EFA02467B6AD31A022B01D90323A2
:1039800080E2554B1B6803F48073002BF0D0FFF7E7
:103990008FFA034641F20302934217D87B681B6AF1
:1039A000202B08D14C4B5B6823F0F8434A4A43F084
:1039B000804353602EE0484B5B6823F0F8427B68FD
:1039C0001B6A9B06444913434B6023E0424BDB6870
:1039D00023F07C527B681B6A1B063F491343CB6074
:1039E00018E03D4B1B683C4A23F080031360FFF74F
:1039F0002FFA786208E0FFF72BFA02467B6AD31AA7
:103A0000022B01D903233DE2334B1B6803F480737F
:103A1000002BF0D17B681B6803F00803002B36D025
:103A20007B685B69002B19D02B4B5B6F2A4A43F0F4
:103A300001035367FFF70CFA786208E0FFF708FA12
:103A400002467B6AD31A022B01D903231AE2224BC6
:103A50005B6F03F00203002BF0D018E01E4B5B6F8E
:103A60001D4A23F001035367FFF7F2F9786208E07B
:103A7000FFF7EEF902467B6AD31A022B01D9032322
:103A800000E2154B5B6F03F00203002BF0D17B6863
:103A90001B6803F02003002B39D07B689B69002B47
:103AA0001CD00D4B1B680C4A43F480531360FFF786
:103AB000CFF9786208E0FFF7CBF902467B6AD31AA8
:103AC000022B01D90323DDE1034B1B6803F40053F0
:103AD000002BF0D01BE000BF004402589B4B1B683A
:103AE0009A4A23F480531360FFF7B2F9786208E032
:103AF000FFF7AEF902467B6AD31A022B01D90323E2
:103B0000C0E1924B1B6803F40053002BF0D17B689B
:103B10001B6803F00403002B00F081808C4B1B68B2
:103B20008B4A43F480731360FFF792F9786208E0E0
:103B3000FFF78EF902467B6AD31A642B01D903235F
:103B4000A0E1834B1B6803F48073002BF0D07B68EB
:103B50009B68012B06D17D4B1B6F7C4A43F0010310
:103B600013672DE07B689B68002B0CD1774B1B6F94
:103B7000764A23F001031367744B1B6F734A23F0DB
:103B8000040313671CE07B689B68052B0CD16F4B0B
:103B90001B6F6E4A43F0040313676C4B1B6F6B4A39
:103BA00043F0010313670BE0684B1B6F674A23F078
:103BB00001031367654B1B6F644A23F0040313670B
:103BC0007B689B68002B15D0FFF742F978620AE00A
:103BD000FFF73EF902467B6AD31A41F288329342DC
:103BE00001D903234EE1594B1B6F03F00203002B55
:103BF000EED014E0FFF72CF978620AE0FFF728F91D
:103C000002467B6AD31A41F28832934201D90323D8
:103C100038E14E4B1B6F03F00203002BEED17B68A3
:103C20005B6A002B00F02D81484B1B6903F03803C1
:103C3000182B00F0BD807B685B6A022B40F09E80F1
:103C4000424B1B68414A23F080731360FFF700F971
:103C5000786208E0FFF7FCF802467B6AD31A022B71
:103C600001D903230EE1394B1B6803F00073002BCD
:103C7000F0D1364B9A6A374B13407A68916A7A686A
:103C8000D26A12010A43314913438B627B681B6B72
:103C9000013BC3F308027B685B6B013B5B029BB299
:103CA0001A437B689B6B013B1B0403F4FE031A431E
:103CB0007B68DB6B013B1B0603F0FE432349134388
:103CC0000B63224BDB6A214A23F00103D3621F4BB3
:103CD0005A6B214B13407A68926CD2001B491343F4
:103CE0004B631A4BDB6A23F00C027B681B6C174991
:103CF0001343CB62154BDB6A23F002027B685B6CDB
:103D000012491343CB62114BDB6A104A43F48033F0
:103D1000D3620E4BDB6A0D4A43F40033D3620B4B84
:103D2000DB6A0A4A43F48023D362084BDB6A074A02
:103D300043F00103D362054B1B68044A43F08073D0
:103D40001360FFF785F8786211E000BF0044025865
:103D5000004802580CFCFFFF0700FFFFFFF778F850
:103D600002467B6AD31A022B01D903238AE0474B10
:103D70001B6803F00073002BF0D082E0434B1B68FC
:103D8000424A23F080731360FFF762F8786208E01C
:103D9000FFF75EF802467B6AD31A022B01D9032390
:103DA00070E03A4B1B6803F00073002BF0D168E021
:103DB000364B9B6A3B61354B1B6BFB607B685B6AD8
:103DC000012B31D03B6903F003027B689B6A9A4266
:103DD0002AD13B691B0903F03F027B68DB6A9A42E8
:103DE00022D1FB68C3F308027B681B6B013B9A423C
:103DF0001AD1FB685B0A03F07F027B685B6B013BB7
:103E00009A4211D1FB681B0C03F07F027B689B6B0D
:103E1000013B9A4208D1FB681B0E03F07F027B68CE
:103E2000DB6B013B9A4201D001232BE0174B5B6B0C
:103E3000DB08C3F30C033B617B689B6C3A699A42D5
:103E40001FD0124BDB6A114A23F00103D362FEF745
:103E5000FFFF786200BFFEF7FBFF02467B6A9342DA
:103E6000F9D00A4B5A6B0A4B13407A68926CD20015
:103E7000064913434B63054BDB6A044A43F00103D5
:103E8000D362002318463037BD4680BD0044025837
:103E90000700FFFF80B586B000AF786039607B68AF
:103EA000002B01D101239CE18A4B1B6803F00F0317
:103EB0003A689A4210D9874B1B6823F00F02854954
:103EC0003B6813430B60834B1B6803F00F033A6896
:103ED0009A4201D0012384E17B681B6803F004034C
:103EE000002B10D07B681A697B4B9B6903F0700331
:103EF0009A4208D9784B9B6923F070027B681B6952
:103F0000754913438B617B681B6803F00803002B22
:103F100010D07B685A69704BDB6903F070039A42DA
:103F200008D96D4BDB6923F070027B685B696A49D5
:103F30001343CB617B681B6803F01003002B10D088
:103F40007B689A69644BDB6903F4E0639A4208D9A1
:103F5000614BDB6923F4E0627B689B695E49134334
:103F6000CB617B681B6803F02003002B10D07B68BB
:103F7000DA69594B1B6A03F070039A4208D9564B11
:103F80001B6A23F070027B68DB69534913430B62A1
:103F90007B681B6803F00203002B10D07B68DA6893
:103FA0004D4B9B6903F00F039A4208D94A4B9B691A
:103FB00023F00F027B68DB68474913438B617B6802
:103FC0001B6803F00103002B55D0434B9B6923F47E
:103FD00070627B689B68404913438B617B685B68B8
:103FE000022B07D13C4B1B6803F40033002B21D17B
:103FF0000123F6E07B685B68032B07D1364B1B6817
:1040000003F00073002B15D10123EAE07B685B68A5
:10401000012B07D1304B1B6803F48073002B09D1AF
:104020000123DEE02C4B1B6803F00403002B01D1BD
:104030000123D6E0284B1B6923F007027B685B68ED
:10404000254913430B61FEF703FF78610AE0FEF791
:10405000FFFE02467B69D31A41F28832934201D9AE
:104060000323BEE01C4B1B6903F038027B685B68CE
:10407000DB009A42EBD17B681B6803F00203002B44
:1040800010D07B68DA68144B9B6903F00F039A42E7
:1040900008D2114B9B6923F00F027B68DB680E4945
:1040A00013438B610B4B1B6803F00F033A689A4272
:1040B00014D2084B1B6823F00F0206493B681343D8
:1040C0000B60044B1B6803F00F033A689A4205D05B
:1040D000012386E000200052004402587B681B68E0
:1040E00003F00403002B10D07B681A693F4B9B69D7
:1040F00003F070039A4208D23C4B9B6923F0700294
:104100007B681B69394913438B617B681B6803F02B
:104110000803002B10D07B685A69344BDB6903F02D
:1041200070039A4208D2314BDB6923F070027B683E
:104130005B692E491343CB617B681B6803F0100356
:10414000002B10D07B689A69284BDB6903F4E0638D
:104150009A4208D2254BDB6923F4E0627B689B69B5
:1041600022491343CB617B681B6803F02003002BBB
:1041700010D07B68DA691D4B1B6A03F070039A420A
:1041800008D21A4B1B6A23F070027B68DB6917495F
:1041900013430B6200F034F80246144B9B691B0A70
:1041A00003F00F031249CB5C03F01F0322FA03F361
:1041B0003B610E4B9B6903F00F030D4AD35C03F088
:1041C0001F033A6922FA03F30A4A13600A4A3B6959
:1041D00013600A4B1B681846FEF7F0FD0346FB739D
:1041E000FB7B18461837BD4680BD00BF004402580F
:1041F00068E6000808000024040000240C000024E5
:1042000080B489B000AFB34B1B6903F03803182B9F
:1042100000F2558101A252F823F000BF814200084C
:10422000BF440008BF440008BF440008BF44000862
:10423000BF440008BF440008BF440008A74200086C
:10424000BF440008BF440008BF440008BF44000842
:10425000BF440008BF440008BF440008AD42000846
:10426000BF440008BF440008BF440008BF44000822
:10427000BF440008BF440008BF440008B342000820
:10428000944B1B6803F02003002B09D0914B1B6853
:10429000DB0803F00303904A22FA03F3BB6111E148
:1042A0008D4BBB610EE18D4BBB610BE18C4BBB6158
:1042B00008E1884B9B6A03F003037B61854B9B6A93
:1042C0001B0903F03F033B61824BDB6A03F00103F0
:1042D000FB60804B5B6BDB08C3F30C03FA6802FBEB
:1042E00003F307EE903AF8EE677AC7ED027A3B697E
:1042F000002B00F0E1807B69022B00F083807B695A
:10430000022B00F2A1807B69002B03D07B69012B7B
:1043100056D099E06F4B1B6803F02003002B2DD083
:104320006C4B1B68DB0803F003036B4A22FA03F3B0
:104330007B607B6807EE903AF8EE676A3B6907EEB0
:10434000903AF8EE677A86EEA77A624B1B6BC3F35E
:10435000080307EE903AF8EE676A97ED026ADFED20
:10436000615AC6EE257A76EEA77AF7EE006A77EE06
:10437000A67A67EE277AC7ED077A87E03B6907EEF2
:10438000903AF8EE677ADFED586A86EEA77A514BDD
:104390001B6BC3F3080307EE903AF8EE676A97EDDC
:1043A000026ADFED505AC6EE257A76EEA77AF7EE6E
:1043B000006A77EEA67A67EE277AC7ED077A65E09E
:1043C0003B6907EE903AF8EE677ADFED486A86EED1
:1043D000A77A404B1B6BC3F3080307EE903AF8EE45
:1043E000676A97ED026ADFED3F5AC6EE257A76EEF0
:1043F000A77AF7EE006A77EEA67A67EE277AC7ED1E
:10440000077A43E03B6907EE903AF8EE677ADFED12
:10441000386A86EEA77A2F4B1B6BC3F3080307EEAF
:10442000903AF8EE676A97ED026ADFED2E5AC6EE13
:10443000257A76EEA77AF7EE006A77EEA67A67EE2F
:10444000277AC7ED077A21E03B6907EE903AF8EE4C
:10445000677ADFED266A86EEA77A1E4B1B6BC3F3E5
:10446000080307EE903AF8EE676A97ED026ADFED0F
:104470001D5AC6EE257A76EEA77AF7EE006A77EE39
:10448000A67A67EE277AC7ED077A00BF114B1B6B40
:104490005B0A03F07F0301333B603B6807EE903A11
:1044A000B8EE677AD7ED076AC6EE877AFCEEE77A50
:1044B00017EE903ABB6105E00023BB6102E0074BB9
:1044C000BB6100BFBB6918462437BD465DF8047B5D
:1044D000704700BF004402580090D00300093D001F
:1044E00040787D01000000460024744C0024744A8A
:1044F00020BCBE4B80B582B000AFFFF781FE024604
:10450000104B9B691B0A03F00F030F49CB5C03F0B0
:104510001F0322FA03F37B600A4B9B6903F00F032E
:10452000094AD35C03F01F037A6822FA03F3074AAF
:104530001360074A7B681360044B1B6818460837F2
:10454000BD4680BD0044025868E60008080000240B
:104550000400002480B500AFFFF7CCFF0246064BF5
:10456000DB691B0903F007030449CB5C03F01F035D
:1045700022FA03F3184680BD0044025868E600089A
:1045800080B500AFFFF7B6FF0246064BDB691B0A9A
:1045900003F007030449CB5C03F01F0322FA03F383
:1045A000184680BD0044025868E600082DE9B04F67
:1045B000CAB000AFC7F81401002387F827310023E1
:1045C00087F82631D7F81431D3E9002302F00064CC
:1045D000002554EA050349D0D7F814319B6EB3F592
:1045E000401F2FD0B3F5401F28D8B3F5001F1AD0B5
:1045F000B3F5001F22D8002B03D0B3F5801F07D0DE
:104600001CE0B84BDB6AB74A43F40033D3621AE0CC
:10461000D7F8143108330221184601F08FFC034605
:1046200087F827310FE0D7F81431283302211846D4
:1046300001F036FD034687F8273104E0012387F8AF
:10464000273100E000BF97F82731002B0AD1A54B96
:104650001B6D23F44011D7F814319B6EA14A0B4314
:10466000136503E097F8273187F82631D7F814311E
:10467000D3E9002302F480784FF0000958EA0903D7
:1046800047D0D7F814319B6D042B2AD801A252F8D9
:1046900023F000BFA9460008B7460008CD46000831
:1046A000EB460008EB4600088E4BDB6A8D4A43F46C
:1046B0000033D3621AE0D7F81431083300211846CA
:1046C00001F03CFC034687F827310FE0D7F814319E
:1046D00028330021184601F0E3FC034687F8273110
:1046E00004E0012387F8273100E000BF97F8273165
:1046F000002B0AD17B4B1B6D23F00701D7F8143137
:104700009B6D784A0B43136503E097F8273187F8D0
:104710002631D7F81431D3E9002302F4007A4FF0A0
:10472000000B5AEA0B034CD0D7F81431DB6DB3F50C
:10473000807F30D0B3F5807F29D8C02B2DD0C02BFF
:1047400025D8802B18D0802B21D8002B02D0402BCD
:1047500007D01CE0634BDB6A624A43F40033D36248
:104760001CE0D7F8143108330021184601F0E6FBAD
:10477000034687F8273111E0D7F814312833002198
:10478000184601F08DFC034687F8273106E0012327
:1047900087F8273102E000BF00E000BF97F827311B
:1047A000002B0AD14F4B1B6D23F4E071D7F8143165
:1047B000DB6D4C4A0B43136503E097F8273187F80C
:1047C0002631D7F81431D3E9002302F48063C7F807
:1047D00008310023C7F80C31D7E942120B461343C6
:1047E00053D0D7F81431D3F8A830B3F5000F35D033
:1047F000B3F5000F2ED8B3F5C00F31D0B3F5C00F0D
:1048000028D8B3F5800F1AD0B3F5800F22D8002B2B
:1048100003D0B3F5001F07D01CE0324BDB6A314AEE
:1048200043F40033D3621CE0D7F81431083300217D
:10483000184601F083FB034687F8273111E0D7F8CB
:10484000143128330021184601F02AFC034687F86A
:10485000273106E0012387F8273102E000BF00E09E
:1048600000BF97F82731002B0BD11E4B9B6D23F413
:104870006001D7F81431D3F8A8301A4A0B43936576
:1048800003E097F8273187F82631D7F81431D3E9B8
:10489000002302F40063C7F800310023C7F8043195
:1048A000D7E940120B46134356D0D7F81431D3F84A
:1048B000AC30B3F1806F38D0B3F1806F31D8B3F141
:1048C000407F34D0B3F1407F2BD8B3F1007F1DD0AF
:1048D000B3F1007F25D8002B06D0B3F1807F0AD03A
:1048E0001FE000BF00440258A24BDB6AA14A43F418
:1048F0000033D3621CE0D7F8143108330021184686
:1049000001F01CFB034687F8273111E0D7F814317A
:1049100028330021184601F0C3FB034687F82731EE
:1049200006E0012387F8273102E000BF00E000BF66
:1049300097F82731002B0BD18E4B9B6D23F0E06154
:10494000D7F81431D3F8AC308A4A0B43936503E0AF
:1049500097F8273187F82631D7F81431D3E90023A7
:1049600002F00073C7F8F8300023C7F8FC30D7E92D
:104970003E120B4613433AD0D7F81431DB6C302B80
:104980001FD0302B19D8202B0CD0202B15D8002B62
:1049900019D0102B11D1774BDB6A764A43F40033E0
:1049A000D36211E0D7F8143108330221184601F020
:1049B000C5FA034687F8273106E0012387F8273137
:1049C00002E000BF00E000BF97F82731002B0AD1BA
:1049D000684BDB6C23F03001D7F81431DB6C654A8F
:1049E0000B43D36403E097F8273187F82631D7F8D3
:1049F0001431D3E9002302F48053C7F8F0300023C8
:104A0000C7F8F430D7E93C120B46134351D0D7F81E
:104A100014311B6EB3F5804F35D0B3F5804F2ED8CF
:104A2000B3F5405F31D0B3F5405F28D8B3F5005FF0
:104A30001AD0B3F5005F22D8002B03D0B3F5805F06
:104A400007D01CE04B4BDB6A4A4A43F40033D36285
:104A50001CE0D7F8143108330021184601F06EFA33
:104A6000034687F8273111E0D7F8143128330021A5
:104A7000184601F015FB034687F8273106E00123AD
:104A800087F8273102E000BF00E000BF97F8273128
:104A9000002B0AD1374B1B6D23F4E041D7F81431BA
:104AA0001B6E344A0B43136503E097F8273187F8F0
:104AB0002631D7F81431D3E9002302F40053C7F8A4
:104AC000E8300023C7F8EC30D7E93A120B4613431D
:104AD00056D0D7F814315B6EB3F5A02F33D0B3F5B1
:104AE000A02F2CD8B3F5802F2FD0B3F5802F26D848
:104AF000B3F5403F2BD0B3F5403F20D8B3F5003F8E
:104B000012D0B3F5003F1AD8002B22D0B3F5803F66
:104B100015D1D7F8143108330121184601F00EFAE7
:104B2000034687F8273115E0D7F8143128330121DF
:104B3000184601F0B5FA034687F827310AE0012349
:104B400087F8273106E000BF04E000BF02E000BFA5
:104B500000E000BF97F82731002B0DD1054B1B6DEE
:104B600023F4E021D7F814315B6E024A0B4313653E
:104B700006E000BF0044025897F8273187F8263135
:104B8000D7F81431D3E9002302F48043C7F8E030AA
:104B90000023C7F8E430D7E938120B46134355D049
:104BA000D7F81431D3F8B030B3F1A04F33D0B3F10C
:104BB000A04F2CD8B3F1804F2FD0B3F1804F26D81F
:104BC000B3F1405F2BD0B3F1405F20D8B3F1005F69
:104BD00012D0B3F1005F1AD8002B22D0B3F1805F5E
:104BE00015D1D7F8143108330121184601F0A6F980
:104BF000034687F8273115E0D7F81431283301210F
:104C0000184601F04DFA034687F827310AE00123E0
:104C100087F8273106E000BF04E000BF02E000BFD4
:104C200000E000BF97F82731002B0BD1A34B9B6D01
:104C300023F0E041D7F81431D3F8B0309F4A0B434A
:104C4000936503E097F8273187F82631D7F81431B8
:104C5000D3E9002302F40043C7F8D8300023C7F893
:104C6000DC30D7E936120B46134337D0D7F814316E
:104C70001B6FB3F1005F0ED0B3F1005F16D8002BAD
:104C800018D0B3F1805F11D18C4BDB6A8B4A43F4AF
:104C90000033D3620FE0D7F81431083301211846EE
:104CA00001F04CF9034687F8273104E0012387F827
:104CB000273100E000BF97F82731002B0AD17F4B46
:104CC0001B6D23F04051D7F814311B6F7B4A0B4307
:104CD000136503E097F8273187F82631D7F81431A8
:104CE000D3E9002302F08073C7F8D0300023C7F85F
:104CF000D430D7E934120B46134339D0D7F81431E6
:104D00009B6C032B1CD801A252F823F0494D0008DC
:104D10001D4D00082B4D0008494D0008674BDB6A0C
:104D2000664A43F40033D3620FE0D7F814310833F6
:104D30000221184601F002F9034687F8273104E002
:104D4000012387F8273100E000BF97F82731002BB7
:104D50000AD15A4BDB6C23F00301D7F814319B6C5A
:104D6000564A0B43D36403E097F8273187F826317E
:104D7000D7F81431D3E9002302F48003C7F8C83010
:104D80000023C7F8CC30D7E932120B46134300F0AA
:104D90009F804B4B1B684A4A43F480731360FEF7B5
:104DA00057F8C7F820010BE0FEF752F80246D7F893
:104DB0002031D31A642B03D9032387F8273105E068
:104DC0003F4B1B6803F48073002BEDD097F827311D
:104DD000002B79D1394B1A6FD7F81431D3F8B4308E
:104DE000534003F44073002B15D0344B1B6F23F456
:104DF0004073C7F81C31314B1B6F304A43F480338A
:104E000013672E4B1B6F2D4A23F4803313672B4AF5
:104E1000D7F81C311367D7F81431D3F8B430B3F591
:104E2000807F18D1FEF714F8C7F820010DE0FEF7D7
:104E30000FF80246D7F82031D21A41F288339A424D
:104E400003D9032387F8273105E01C4B1B6F03F0C0
:104E50000203002BEBD097F82731002B29D1D7F88C
:104E60001431D3F8B43003F44073B3F5407F0ED15E
:104E7000124B1B6923F47C51D7F81431D3F8B430AA
:104E80001A09104B13400D4A0B43136105E00B4BFD
:104E90001B690A4A23F47C531361084B196FD7F836
:104EA0001431D3F8B430C3F30B03044A0B43136734
:104EB0000EE097F8273187F8263109E000440258C0
:104EC00000480258CFFFFF0097F8273187F82631B6
:104ED000D7F81431D3E9002302F00103C7F8C0303A
:104EE0000023C7F8C430D7E930120B46134300F053
:104EF0008980D7F81431DB6F282B6BD801A252F8C8
:104F000023F000BFDD4F0008D54F0008D54F000843
:104F1000D54F0008D54F0008D54F0008D54F0008E1
:104F2000D54F0008A94F0008D54F0008D54F0008FD
:104F3000D54F0008D54F0008D54F0008D54F0008C1
:104F4000D54F0008BF4F0008D54F0008D54F0008C7
:104F5000D54F0008D54F0008D54F0008D54F0008A1
:104F6000D54F0008DD4F0008D54F0008D54F000889
:104F7000D54F0008D54F0008D54F0008D54F000881
:104F8000D54F0008DD4F0008D54F0008D54F000869
:104F9000D54F0008D54F0008D54F0008D54F000861
:104FA000D54F0008DD4F0008D7F814310833012130
:104FB000184600F0C3FF034687F827310FE0D7F803
:104FC000143128330121184601F06AF8034687F8A6
:104FD000273104E0012387F8273100E000BF97F86C
:104FE0002731002B0AD1BF4B5B6D23F03801D7F876
:104FF0001431DB6FBB4A0B43536503E097F827314D
:1050000087F82631D7F81431D3E9002302F00203E0
:10501000C7F8B8300023C7F8BC30D7E92E120B46CA
:10502000134341D0D7F814319B6F052B24D801A22C
:1050300052F823F0815000084D50000863500008DA
:10504000815000088150000881500008D7F81431C1
:1050500008330121184600F071FF034687F8273115
:105060000FE0D7F8143128330121184601F018F861
:10507000034687F8273104E0012387F8273100E051
:1050800000BF97F82731002B0AD1964B5B6D23F0B8
:105090000701D7F814319B6F924A0B43536503E025
:1050A00097F8273187F82631D7F81431D3E9002350
:1050B00002F00403C7F8B0300023C7F8B430D7E9D2
:1050C0002C120B46134344D0D7F81431D3F8943044
:1050D000052B25D801A252F823F000BF2951000862
:1050E000F55000080B51000829510008295100080B
:1050F00029510008D7F8143108330121184600F06F
:105100001DFF034687F827310FE0D7F81431283305
:105110000121184600F0C4FF034687F8273104E058
:10512000012387F8273100E000BF97F82731002BD3
:105130000BD16C4B9B6D23F00701D7F81431D3F8DA
:105140009430684A0B43936503E097F8273187F85A
:105150002631D7F81431D3E9002302F02003C7F831
:10516000A8300023C7F8AC30D7E92A120B46134306
:1051700055D0D7F81431D3F89030B3F1A04F33D0D5
:10518000B3F1A04F2CD8B3F1804F2FD0B3F1804FA3
:1051900026D8B3F1405F2BD0B3F1405F20D8B3F1F4
:1051A000005F12D0B3F1005F1AD8002B22D0B3F108
:1051B000805F15D1D7F8143108330021184600F06C
:1051C000BDFE034687F8273115E0D7F814312833A0
:1051D0000221184600F064FF034687F827310AE0F1
:1051E000012387F8273106E000BF04E000BF02E09A
:1051F00000BF00E000BF97F82731002B0BD1394BDF
:105200005B6D23F0E041D7F81431D3F89030354A84
:105210000B43536503E097F8273187F82631D7F819
:105220001431D3E9002302F04003C7F8A030002373
:10523000C7F8A430D7E928120B46134358D0D7F843
:105240001431D3F89C30B3F5A05F33D0B3F5A05F31
:105250002CD8B3F5805F2FD0B3F5805F26D8B3F597
:10526000406F2BD0B3F5406F20D8B3F5006F12D04C
:10527000B3F5006F1AD8002B22D0B3F5806F15D18B
:10528000D7F8143108330021184600F057FE0346C2
:1052900087F8273115E0D7F8143128330221184652
:1052A00000F0FEFE034687F827310AE0012387F865
:1052B000273106E000BF04E000BF02E000BF00E0CD
:1052C00000BF97F82731002B0ED1064B9B6D23F4BE
:1052D000E051D7F81431D3F89C30024A0B43936560
:1052E00006E000BF0044025897F8273187F82631BE
:1052F000D7F81431D3E9002302F08003C7F89830BF
:105300000023C7F89C30D7E926120B46134355D02B
:10531000D7F81431D3F8A030B3F5204F33D0B3F51C
:10532000204F2CD8B3F5004F2FD0B3F5004F26D81F
:10533000B3F5C04F2BD0B3F5C04F20D8B3F5804F95
:1053400012D0B3F5804F1AD8002B22D0B3F5005FEE
:1053500015D1D7F8143108330021184600F0EEFDBE
:10536000034687F8273115E0D7F814312833022196
:10537000184600F095FE034687F827310AE001231E
:1053800087F8273106E000BF04E000BF02E000BF5D
:1053900000E000BF97F82731002B0BD1A14B9B6D8C
:1053A00023F46041D7F81431D3F8A0309D4A0B4361
:1053B000936503E097F8273187F82631D7F8143141
:1053C000D3E9002302F00803C7F890300023C7F8A0
:1053D0009430D7E924120B4613431ED0D7F814316A
:1053E000D3F88430B3F5805F0CD1D7F8143128336B
:1053F0000221184600F054FE0346002B02D0012380
:1054000087F82631874B5B6D23F44051D7F8143170
:10541000D3F88430834A0B435365D7F81431D3E96A
:10542000002302F01003C7F888300023C7F88C303F
:10543000D7E922120B4613431ED0D7F81431D3F804
:105440009830B3F5807F0CD1D7F81431283302217E
:10545000184600F025FE0346002B02D0012387F8F2
:105460002631704B9B6D23F44071D7F81431D3F87B
:1054700098306C4A0B439365D7F81431D3E9002375
:1054800002F40023C7F880300023C7F88430D7E93E
:1054900020120B4613433ED0D7F81431D3F8A43072
:1054A000B3F5003F22D0B3F5003F1BD8002B03D04B
:1054B000B3F5803F0BD015E0D7F814310833002145
:1054C000184600F03BFD034687F827310FE0D7F878
:1054D000143128330221184600F0E2FD034687F814
:1054E000273104E0012387F8273100E000BF97F857
:1054F0002731002B0BD14B4B9B6D23F44031D7F858
:105500001431D3F8A430474A0B43936503E097F86E
:10551000273187F82631D7F81431D3E9002302F474
:105520008023BB670023FB67D7E91E120B4613439A
:105530003BD0D7F81431D3F88830B3F5401F1FD0D3
:10554000B3F5401F18D8B3F5801F03D0B3F5001F83
:1055500007D011E0334BDB6A324A43F40033D362A5
:105560000FE0D7F8143128330121184600F098FDD8
:10557000034687F8273104E0012387F8273100E04C
:1055800000BF97F82731002B0BD1264B5B6D23F41E
:105590004011D7F81431D3F88830224A0B435365B1
:1055A00003E097F8273187F82631D7F81431D3E98B
:1055B000002302F480333B6700237B67D7E91C128A
:1055C0000B46134334D0D7F814311B6D002B03D096
:1055D000B3F5803F07D011E0124BDB6A114A43F468
:1055E0000033D3620EE0D7F8143108330221184695
:1055F00000F0A4FC034687F8273103E0012387F875
:10560000273100BF97F82731002B0DD1054BDB6CFC
:1056100023F48031D7F814311B6D024A0B43D36455
:1056200006E000BF0044025897F8273187F826317A
:10563000D7F81431D3E9002302F00053BB660023EE
:10564000FB66D7E91A120B4613430CD0D7F8143176
:1056500028330221184600F023FD0346002B02D018
:10566000012387F82631D7F81431D3E9002302F457
:1056700000333B6600237B66D7E918120B461343C1
:1056800038D0D7F81431D3F88030B3F5407F18D034
:10569000B3F5407F11D8B3F5007F14D0B3F5007F88
:1056A0000BD8002B11D0B3F5807F06D1C34BDB6A3A
:1056B000C24A43F40033D36208E0012387F827315C
:1056C00004E000BF02E000BF00E000BF97F8273110
:1056D000002B0BD1B94B5B6D23F44071D7F814311B
:1056E000D3F88030B54A0B43536503E097F8273170
:1056F00087F82631D7F81431D3E9002302F4801358
:10570000BB650023FB65D7E916120B46134309D08E
:10571000AA4B1B6D23F00041D7F814315B6FA74AE9
:105720000B431365D7F81431D3E9002302F08053FB
:105730003B6500237B65D7E914120B4613430AD05F
:105740009E4B1B6923F48041D7F81431D3F8B8304D
:105750009A4A0B431361D7F81431D3E9002302F4BA
:105760000013BB640023FB64D7E912120B461343FA
:1057700009D0924B1B6D23F08071D7F81431DB6E8A
:105780008E4A0B431365D7F81431D3E9002302F096
:1057900080433B6400237B64D7E910120B4613431C
:1057A0000ED0864B1B69854A23F400431361834B5B
:1057B0001969D7F81431D3F8BC30804A0B43136110
:1057C000D7F81431D3E9002302F00043BB63002370
:1057D000FB63D7E90E120B46134309D0774BDB6C02
:1057E00023F04051D7F814315B6D744A0B43D364F6
:1057F000D7F81431D3E9002302F400033B630023FC
:105800007B63D7E90C120B4613430AD06B4B5B6DDD
:1058100023F44001D7F81431D3F88C30674A0B4396
:105820005365D7F81431D3E900230021B96203F09E
:105830000103FB62D7E90A120B46134311D0D7F8D4
:10584000143108330021184600F078FB034687F82E
:10585000273197F82731002B03D097F8273187F8A5
:105860002631D7F81431D3E900230021396203F03F
:1058700002037B62D7E908120B46134311D0D7F815
:10588000143108330121184600F058FB034687F80D
:10589000273197F82731002B03D097F8273187F865
:1058A0002631D7F81431D3E900230021B96103F080
:1058B0000403FB61D7E906120B46134311D0D7F856
:1058C000143108330221184600F038FB034687F8EC
:1058D000273197F82731002B03D097F8273187F825
:1058E0002631D7F81431D3E900230021396103F0C0
:1058F00008037B61D7E904120B46134311D0D7F894
:10590000143128330021184600F0CAFB034687F8FB
:10591000273197F82731002B03D097F8273187F8E4
:105920002631D7F81431D3E900230021B96003F000
:105930001003FB60D7E902120B46134311D0D7F8CE
:10594000143128330121184600F0AAFB034687F8DA
:10595000273197F82731002B03D097F8273187F8A4
:105960002631D7F81431D3E900230021396003F040
:1059700020037B60D7E900120B46134311D0D7F800
:10598000143128330221184600F08AFB034687F8B9
:10599000273197F82731002B03D097F8273187F864
:1059A000263197F82631002B01D1002300E0012396
:1059B000184607F59477BD46BDE8B08F00440258FD
:1059C00080B500AFFEF796FD0246064B1B6A1B0929
:1059D00003F007030449CB5C03F01F0322FA03F32F
:1059E000184680BD0044025868E6000880B489B0BB
:1059F00000AF7860A14B9B6A03F00303BB619F4B30
:105A00009B6A1B0B03F03F037B619C4BDB6A1B090A
:105A100003F001033B61994BDB6BDB08C3F30C0321
:105A20003A6902FB03F307EE903AF8EE677AC7EDA6
:105A3000037A7B69002B00F01181BB69022B00F017
:105A40008380BB69022B00F2A180BB69002B03D0CD
:105A5000BB69012B56D099E0884B1B6803F02003EB
:105A6000002B2DD0854B1B68DB0803F00303844A11
:105A700022FA03F3BB60BB6807EE903AF8EE676A60
:105A80007B6907EE903AF8EE677A86EEA77A7B4B51
:105A90009B6BC3F3080307EE903AF8EE676A97ED45
:105AA000036ADFED785AC6EE257A76EEA77AF7EE2E
:105AB000006A77EEA67A67EE277AC7ED077A87E065
:105AC0007B6907EE903AF8EE677ADFED6F6A86EE53
:105AD000A77A6A4B9B6BC3F3080307EE903AF8EE84
